:030000000207CC28
:0C07CC00787FE4F6D8FD758172020813F6
:100368007FBFDFEFF7FBFDFE80000000000000000C
:100378004000000000000000200000000000000015
:10038800100000000000000008000000000000004D
:10039800040000000000000002000000000000004F
:1003A80001000000000000000080000000000000C4
:1003B80000400000000000000020000000000000D5
:1003C800001000000000000000080000000000000D
:1003D800000400000000000000020000000000000F
:1003E8000001000000000000000080000000000084
:1003F8000000400000000000000020000000000095
:1004080000001000000000000000080000000000CC
:1004180000000400000000000000020000000000CE
:100428000000010000000000000000800000000043
:100438000000004000000000000000200000000054
:10044800000000100000000000000008000000008C
:10045800000000040000000000000002000000008E
:100468000000000100000000000000008000000003
:100478000000000040000000000000002000000014
:10048800000000001000000000000000080000004C
:10049800000000000400000000000000020000004E
:1004A80000000000010000000000000000800000C3
:1004B80000000000004000000000000000200000D4
:1004C800000000000010000000000000000800000C
:1004D800000000000004000000000000000200000E
:1004E8000000000000010000000000000000800083
:1004F8000000000000004000000000000000200094
:1005080000000000000010000000000000000800CB
:1005180000000000000004000000000000000200CD
:100528000000000000000100000000000000008042
:100538000000000000000040000000000000002053
:10054800000000000000001000000000000000088B
:10055800000000000000000400000000000000028D
:0805680000000000000000018A
:1008C500022C00002028320001000000000000007A
:1008D5000000000000000000000000000000000013
:1008E5000000000000000000000000000000000201
:1008F50030FFFF022A000202280000202008000025
:10090500044C04B00514000100020003000A0006AF
:0E09150000050004000A000700080009000A9F
:080A5D003532F5327F647E00A2
:0B0A6500EF1FAC0670011E4C70F62263
:1007260075900F7F027E00120A65AF90EF640F701E
:10073600030207C4E4FBFAEB2404FFF87401088003
:1007460002C333D8FCF4F5907F027E00120A65E4FA
:10075600FDFCAF057E007401A807088005C333CEF3
:1007660033CED8F9FFA990E9F582EF55827036AFFE
:10077600057E007401A807088005C333CE33CED8A2
:10078600F9FFA990E9F582EF558260E375900FEBCA
:1007960075F008A42408F8C374039D25E028F8E63C
:1007A600FE08E6FF220DBD00010CED64044C70A2AC
:1007B6000BBB00010AEB64044A600302073D759017
:0507C6000F7E057F78A5
:0107CB00220B
:0A097900F582E43583F583E493FF73
:02098300AD07BE
:10098500C2B6C2B5E4FBEBC39408748094805024CE
:10099500EDC4131313540124FF92B4ED25E0FDD2E9
:1009A500B67F027E00120A657F027E00120A65C2CA
:1009B500B60B80D2D2B57F027E00120A657F027E19
:0609C50000120A65C2B534
:0109CB002209
:0A0924007B007A007932AD2BAC2A7B
:10092E00ED24FFF565EC34FFF564D3E5659400E541
:10093E006494004035E56524FFFFE56434FFFEEF67
:10094E0025E0FFEE338F82F5831205A6FDE56525C2
:10095E00E0FFE564338F82F583E5F08DF01205DE5E
:0A096E00E565156570C4156480C0CE
:01097800225C
:0A0660007B007A007932AF2BAE2A3E
:0A066A008E648F658B668A678968CD
:10067400E4F56BF56CE4F56DF56EC3E56E9565E533
:100684006D95644003020711E56E25E0FFE56D33C7
:10069400AB66AA67A9688F82F5831205A6FFAEF040
:1006A4007C007D081205708F6AE4F569C3E56994DE
:1006B40001748094805048E4FF120983E56A900332
:1006C4006893F580E56E25E0FFE56D33AB66AA67B8
:1006D400A9688F82F5831205A6AEF07803C333CEE2
:1006E40033CED8F92470F58274033EF583E5822570
:1006F4006A1209797F0A7E00120A65056980AD05D0
:100704006EE56E600302067E056D02067E056CE5ED
:100714006C7002056BC39401E56B940050030206F0
:01072400795B
:0107250022B1
:100A19007904E4F564F565E4FAEAC3940174809411
:100A290080501FE4FF120983E990036893F580E978
:100A3900900B6893FF1209837F037E00120A650AEF
:100A490080D70565E56570020564C39403E5649480
:030A59000040C496
:010A5C002277
:0B0858007F027E00120A65AF2DAE2C5F
:040863008E648F65AB
:100867007C007D08120570A907E4F566F567E4FAD0
:10087700EAC39401748094805032E4FF120983E93B
:1008870090036893F580AE64E5657803C333CE3390
:10089700CED8F92470F58274033EF583E5822912D8
:1008A70009797F037E00120A650A80C40567E56738
:0D08B70070020566C39403E566940040B12D
:0108C4002211
:100003001209CC7C007D401205708C2C8D2D755A05
:1000130000755B0A20B309752800752901120A616E
:1000230020B20BE4F528F5297F64FE120A6520B09F
:1000330009752800752902120A61E52B25E0243091
:10004300F8E6F53008E6F5311207268E2E8F2FE5F8
:100053002F6402452E7011E55B6406455A600975ED
:100063005A00755B04120A61E52F6408452E70116E
:10007300E55B6404455A6009755A00755B06120A0C
:1000830061E52F6404452E7011E55B6408455A60F1
:1000930009755A00755B02120A61E52F6406452E45
:1000A3007011E55B6402455A6009755A00755B0877
:1000B300120A61E5294528600BE529640245286099
:1000C3000302019AE55A6003020255E55B24FE60D0
:1000D3007224FC604124FE70030201712404600356
:1000E300020255120924E5332401FFE43532FE7C74
:1000F300007D08120570ED4C700E74F92533F5334D
:1001030074FF3532F53280080533E533700205326A
:10011300120A6102024E120924AE32AF337C007D13
:1001230008120570ED4C700D74072533F533E43573
:1001330032F5328008E533153370021532120A6145
:1001430002024E120924AE32AF337C007D08120541
:1001530070EF64074E700A74C82533F53374FF805B
:100163000774082533F533E4120A5D02024E1209BF
:1001730024AE32AF337C007D08120570EF4E700958
:1001830074382533F533E4800874F82533F5337474
:10019300FF120A5D02024EE529640145286003024D
:1001A3000255E55A6003020255E55B24FE605924BB
:1001B300FC603324FE6074240460030202551209B8
:1001C30024E5332401FFE43532FE7C007D0812056B
:1001D30070ED4C7003FEFF220533E53370020532E8
:1001E300120A6102024E120924AE32AF337C007D43
:1001F30008120570ED4C7003FEFF22E533153370D2
:10020300021532120A618043120924AE32AF337CE5
:10021300007D08120570EF64074E7003FEFF227421
:10022300082533F533E4120A5D8020120924AE3227
:10023300AF337C007D08120570EF4E7003FEFF2282
:1002430074F82533F53374FF120A5D7F027E0012C2
:100253000A65E529640245287046C3E52D9420E527
:100263002C64809480401DD3E52D9427E52C648075
:10027300948050101209CC7C007D401205708C2CA8
:100283008D2D80D6C3E5339420E53264809480407D
:100293000FD3E5339427E532648094805002805471
:1002A300E533B52D25E532B52C20052BE52B700262
:1002B300052A25E02430F8A63008A6311209CC7CA3
:1002C300007D401205708C2C8D2D756200756301C5
:1002D300C3E563952BE52A6480F8E5626480985052
:1002E30021E56325E02432F8E6FE08E6B53309E5A7
:1002F30032B50604E4FEFF220563E56370D20562AE
:1003030080CEE529640245287030F560F561120658
:10031300601208587F027E00120A65120A197F02D2
:100323007E00120A650561E56170020560C3940FE2
:10033300E5606480948040D68025E4F560F5611221
:1003430006601208587F027E00120A650561E561A6
:1003530070020560C3940FE5606480948040E012EE
:050363000A6102001711
:1007D800020003E493A3F8E493A34003F68001F234
:1007E80008DFF48029E493A3F85407240CC8C33322
:1007F800C4540F4420C8834004F456800146F6DFF1
:10080800E4800B01020408102040809008C5E47EB3
:10081800019360BCA3FF543F30E509541FFEE493E5
:10082800A360010ECF54C025E060A840B8E493A3AC
:10083800FAE493A3F8E493A3C8C582C8CAC583CAD7
:10084800F0A3C8C582C8CAC583CADFE9DEE780BE8F
:0109230000D3
:10057000C2D5EC30E709B2D5E4C39DFDE49CFCEEA6
:1005800030E715B2D5E4C39FFFE49EFE12060BC30D
:10059000E49DFDE49CFC800312060B30D507C3E408
:0605A0009FFFE49EFE2215
:1005A600BB0110E58229F582E5833AF583E0F5F093
:1005B600A3E0225009E92582F886F008E622BBFE70
:1005C6000AE92582F8E2F5F008E222E5832AF583B6
:0805D600E993F5F0A3E993227B
:1005DE00F8BB0111E58229F582E5833AF583E8F04F
:1005EE00E5F0A3F0225009E92582C8F608A6F0220C
:0D05FE00BBFE09E92582C8F2E5F008F222F3
:1009CC00AC6FAD70AE71AF727810EC4D4E4F7004D1
:1009DC007CA57DA5C3EC13FCED13FDEE13FEEF130C
:1009EC00FF5010EC64CCFCED644CFDEE644EFEEF5D
:1009FC0064CEFFD8DF8C6F8D708E718F72EE547F4A
:0D0A0C00FE228E6F8F7074A5F571F57222B9
:10060B00BC000BBE0029EF8DF084FFADF022E4CCD3
:10061B00F875F008EF2FFFEE33FEEC33FCEE9DEC9C
:10062B00984005FCEE9DFE0FD5F0E9E4CEFD22EDE2
:10063B00F8F5F0EE8420D21CFEADF075F008EF2F2C
:10064B00FFED33FD4007985006D5F0F222C398FD1D
:05065B000FD5F0EA22BA
:00000001FF
